{
  "contractName": "BuyBook",
  "abi": [
    {
      "inputs": [
        {
          "internalType": "uint256",
          "name": "_state",
          "type": "uint256"
        }
      ],
      "stateMutability": "nonpayable",
      "type": "constructor"
    },
    {
      "anonymous": false,
      "inputs": [
        {
          "indexed": false,
          "internalType": "string",
          "name": "_title",
          "type": "string"
        },
        {
          "indexed": false,
          "internalType": "uint256",
          "name": "_value",
          "type": "uint256"
        }
      ],
      "name": "BuyingEndEvent",
      "type": "event"
    },
    {
      "anonymous": false,
      "inputs": [
        {
          "indexed": false,
          "internalType": "address payable",
          "name": "_addressSeller",
          "type": "address"
        },
        {
          "indexed": false,
          "internalType": "uint256",
          "name": "_value",
          "type": "uint256"
        },
        {
          "indexed": false,
          "internalType": "uint8",
          "name": "_ether",
          "type": "uint8"
        }
      ],
      "name": "BuyingStartEvent",
      "type": "event"
    },
    {
      "anonymous": false,
      "inputs": [
        {
          "indexed": false,
          "internalType": "enum BuyBook.StatusTransaction",
          "name": "prevStatus",
          "type": "uint8"
        },
        {
          "indexed": false,
          "internalType": "enum BuyBook.StatusTransaction",
          "name": "newStatus",
          "type": "uint8"
        }
      ],
      "name": "ChangeStatusTransactionEvent",
      "type": "event"
    },
    {
      "inputs": [
        {
          "internalType": "uint256",
          "name": "",
          "type": "uint256"
        }
      ],
      "name": "books",
      "outputs": [
        {
          "internalType": "string",
          "name": "title",
          "type": "string"
        },
        {
          "internalType": "uint256",
          "name": "paidFor",
          "type": "uint256"
        }
      ],
      "stateMutability": "view",
      "type": "function"
    },
    {
      "inputs": [],
      "name": "buyer",
      "outputs": [
        {
          "internalType": "address",
          "name": "",
          "type": "address"
        }
      ],
      "stateMutability": "view",
      "type": "function"
    },
    {
      "inputs": [
        {
          "internalType": "address",
          "name": "",
          "type": "address"
        }
      ],
      "name": "state",
      "outputs": [
        {
          "internalType": "uint256",
          "name": "",
          "type": "uint256"
        }
      ],
      "stateMutability": "view",
      "type": "function"
    },
    {
      "inputs": [],
      "name": "statusTransaction",
      "outputs": [
        {
          "internalType": "enum BuyBook.StatusTransaction",
          "name": "",
          "type": "uint8"
        }
      ],
      "stateMutability": "view",
      "type": "function"
    },
    {
      "inputs": [
        {
          "internalType": "address payable",
          "name": "_addressSeller",
          "type": "address"
        },
        {
          "internalType": "uint256",
          "name": "_value",
          "type": "uint256"
        },
        {
          "internalType": "uint8",
          "name": "_ether",
          "type": "uint8"
        }
      ],
      "name": "buyingStart",
      "outputs": [],
      "stateMutability": "payable",
      "type": "function"
    },
    {
      "inputs": [
        {
          "internalType": "string",
          "name": "_title",
          "type": "string"
        },
        {
          "internalType": "uint256",
          "name": "_value",
          "type": "uint256"
        }
      ],
      "name": "buyingEnd",
      "outputs": [],
      "stateMutability": "nonpayable",
      "type": "function"
    },
    {
      "inputs": [],
      "name": "getBooks",
      "outputs": [
        {
          "components": [
            {
              "internalType": "string",
              "name": "title",
              "type": "string"
            },
            {
              "internalType": "uint256",
              "name": "paidFor",
              "type": "uint256"
            }
          ],
          "internalType": "struct BuyBook.Book[]",
          "name": "",
          "type": "tuple[]"
        }
      ],
      "stateMutability": "view",
      "type": "function"
    },
    {
      "inputs": [],
      "name": "getStatusTransaction",
      "outputs": [
        {
          "internalType": "enum BuyBook.StatusTransaction",
          "name": "",
          "type": "uint8"
        }
      ],
      "stateMutability": "view",
      "type": "function"
    }
  ],
  "bytecode": "0x60806040523480156200001157600080fd5b506040516200198438038062001984833981810160405281019062000037919062000150565b336000806101000a81548173ffffffffffffffffffffffffffffffffffffffff021916908373ffffffffffffffffffffffffffffffffffffffff16021790555080600160008060009054906101000a900473ffffffffffffffffffffffffffffffffffffffff1673ffffffffffffffffffffffffffffffffffffffff1673ffffffffffffffffffffffffffffffffffffffff1681526020019081526020016000208190555060008060146101000a81548160ff0219169083600181111562000104576200010362000182565b5b021790555050620001b1565b600080fd5b6000819050919050565b6200012a8162000115565b81146200013657600080fd5b50565b6000815190506200014a816200011f565b92915050565b60006020828403121562000169576200016862000110565b5b6000620001798482850162000139565b91505092915050565b7f4e487b7100000000000000000000000000000000000000000000000000000000600052602160045260246000fd5b6117c380620001c16000396000f3fe60806040526004361061007b5760003560e01c8063687440461161004e578063687440461461012d5780637150d8ae1461016b578063816a3cd6146101965780639f349789146101c15761007b565b80630d75d1f11461008057806311c9995a146100ab57806331e658a5146100d4578063583b9f9a14610111575b600080fd5b34801561008c57600080fd5b506100956101ec565b6040516100a29190610be4565b60405180910390f35b3480156100b757600080fd5b506100d260048036038101906100cd9190610d8f565b6101ff565b005b3480156100e057600080fd5b506100fb60048036038101906100f69190610e49565b6104d4565b6040516101089190610e85565b60405180910390f35b61012b60048036038101906101269190610f17565b6104ec565b005b34801561013957600080fd5b50610154600480360381019061014f9190610f6a565b6108d9565b60405161016292919061101f565b60405180910390f35b34801561017757600080fd5b50610180610995565b60405161018d919061105e565b60405180910390f35b3480156101a257600080fd5b506101ab6109b9565b6040516101b89190610be4565b60405180910390f35b3480156101cd57600080fd5b506101d66109cf565b6040516101e391906111d1565b60405180910390f35b600060149054906101000a900460ff1681565b60008054906101000a900473ffffffffffffffffffffffffffffffffffffffff1673ffffffffffffffffffffffffffffffffffffffff163373ffffffffffffffffffffffffffffffffffffffff161461028d576040517f08c379a00000000000000000000000000000000000000000000000000000000081526004016102849061123f565b60405180910390fd5b6001808111156102a05761029f610b6d565b5b600060149054906101000a900460ff1660018111156102c2576102c1610b6d565b5b14610302576040517f08c379a00000000000000000000000000000000000000000000000000000000081526004016102f9906112d1565b60405180910390fd5b60008060146101000a81548160ff0219169083600181111561032757610326610b6d565b5b02179055506000805b6002805490508110156103dd57838051906020012060028281548110610359576103586112f1565b5b90600052602060002090600202016000016040516103779190611420565b604051809103902014156103ca57826002828154811061039a576103996112f1565b5b906000526020600020906002020160010160008282546103ba9190611466565b92505081905550600191506103dd565b80806103d5906114bc565b915050610330565b508061044d5760026040518060400160405280858152602001848152509080600181540180825580915050600190039060005260206000209060020201600090919091909150600082015181600001908051906020019061043f929190610aca565b506020820151816001015550505b7f453f322fc158a9cff74fd0bb314f646c5aef282b8b58acb1e97002c2b62506c2838360405161047e92919061101f565b60405180910390a17f2e295f1240c9dca83dabc4de8b9dabcde0a85e87ae5714684dcbdb8578ac0f086001600060149054906101000a900460ff166040516104c7929190611505565b60405180910390a1505050565b60016020528060005260406000206000915090505481565b60008054906101000a900473ffffffffffffffffffffffffffffffffffffffff1673ffffffffffffffffffffffffffffffffffffffff163373ffffffffffffffffffffffffffffffffffffffff161461057a576040517f08c379a00000000000000000000000000000000000000000000000000000000081526004016105719061123f565b60405180910390fd5b6000600181111561058e5761058d610b6d565b5b600060149054906101000a900460ff1660018111156105b0576105af610b6d565b5b146105f0576040517f08c379a00000000000000000000000000000000000000000000000000000000081526004016105e7906115a0565b60405180910390fd5b8060ff16600160008060009054906101000a900473ffffffffffffffffffffffffffffffffffffffff1673ffffffffffffffffffffffffffffffffffffffff1673ffffffffffffffffffffffffffffffffffffffff168152602001908152602001600020541015610696576040517f08c379a000000000000000000000000000000000000000000000000000000000815260040161068d9061160c565b60405180910390fd5b813410156106d9576040517f08c379a00000000000000000000000000000000000000000000000000000000081526004016106d090611678565b60405180910390fd5b60008373ffffffffffffffffffffffffffffffffffffffff166108fc849081150290604051600060405180830381858888f19350505050905080610752576040517f08c379a0000000000000000000000000000000000000000000000000000000008152600401610749906116e4565b60405180910390fd5b6001600060146101000a81548160ff0219169083600181111561077857610777610b6d565b5b02179055508160ff16600160008060009054906101000a900473ffffffffffffffffffffffffffffffffffffffff1673ffffffffffffffffffffffffffffffffffffffff1673ffffffffffffffffffffffffffffffffffffffff16815260200190815260200160002060008282546107f09190611704565b925050819055508160ff16600160008673ffffffffffffffffffffffffffffffffffffffff1673ffffffffffffffffffffffffffffffffffffffff16815260200190815260200160002060008282546108499190611466565b925050819055507f2de32fec596a3c7ec6e861e2b0700d0f7030e157e91f429e77a205368171991284848460405161088393929190611756565b60405180910390a17f2e295f1240c9dca83dabc4de8b9dabcde0a85e87ae5714684dcbdb8578ac0f0860008060149054906101000a900460ff166040516108cb929190611505565b60405180910390a150505050565b600281815481106108e957600080fd5b906000526020600020906002020160009150905080600001805461090c9061134f565b80601f01602080910402602001604051908101604052809291908181526020018280546109389061134f565b80156109855780601f1061095a57610100808354040283529160200191610985565b820191906000526020600020905b81548152906001019060200180831161096857829003601f168201915b5050505050908060010154905082565b60008054906101000a900473ffffffffffffffffffffffffffffffffffffffff1681565b60008060149054906101000a900460ff16905090565b60606002805480602002602001604051908101604052809291908181526020016000905b82821015610ac15783829060005260206000209060020201604051806040016040529081600082018054610a269061134f565b80601f0160208091040260200160405190810160405280929190818152602001828054610a529061134f565b8015610a9f5780601f10610a7457610100808354040283529160200191610a9f565b820191906000526020600020905b815481529060010190602001808311610a8257829003601f168201915b50505050508152602001600182015481525050815260200190600101906109f3565b50505050905090565b828054610ad69061134f565b90600052602060002090601f016020900481019282610af85760008555610b3f565b82601f10610b1157805160ff1916838001178555610b3f565b82800160010185558215610b3f579182015b82811115610b3e578251825591602001919060010190610b23565b5b509050610b4c9190610b50565b5090565b5b80821115610b69576000816000905550600101610b51565b5090565b7f4e487b7100000000000000000000000000000000000000000000000000000000600052602160045260246000fd5b60028110610bad57610bac610b6d565b5b50565b6000819050610bbe82610b9c565b919050565b6000610bce82610bb0565b9050919050565b610bde81610bc3565b82525050565b6000602082019050610bf96000830184610bd5565b92915050565b6000604051905090565b600080fd5b600080fd5b600080fd5b600080fd5b6000601f19601f8301169050919050565b7f4e487b7100000000000000000000000000000000000000000000000000000000600052604160045260246000fd5b610c6682610c1d565b810181811067ffffffffffffffff82111715610c8557610c84610c2e565b5b80604052505050565b6000610c98610bff565b9050610ca48282610c5d565b919050565b600067ffffffffffffffff821115610cc457610cc3610c2e565b5b610ccd82610c1d565b9050602081019050919050565b82818337600083830152505050565b6000610cfc610cf784610ca9565b610c8e565b905082815260208101848484011115610d1857610d17610c18565b5b610d23848285610cda565b509392505050565b600082601f830112610d4057610d3f610c13565b5b8135610d50848260208601610ce9565b91505092915050565b6000819050919050565b610d6c81610d59565b8114610d7757600080fd5b50565b600081359050610d8981610d63565b92915050565b60008060408385031215610da657610da5610c09565b5b600083013567ffffffffffffffff811115610dc457610dc3610c0e565b5b610dd085828601610d2b565b9250506020610de185828601610d7a565b9150509250929050565b600073ffffffffffffffffffffffffffffffffffffffff82169050919050565b6000610e1682610deb565b9050919050565b610e2681610e0b565b8114610e3157600080fd5b50565b600081359050610e4381610e1d565b92915050565b600060208284031215610e5f57610e5e610c09565b5b6000610e6d84828501610e34565b91505092915050565b610e7f81610d59565b82525050565b6000602082019050610e9a6000830184610e76565b92915050565b6000610eab82610deb565b9050919050565b610ebb81610ea0565b8114610ec657600080fd5b50565b600081359050610ed881610eb2565b92915050565b600060ff82169050919050565b610ef481610ede565b8114610eff57600080fd5b50565b600081359050610f1181610eeb565b92915050565b600080600060608486031215610f3057610f2f610c09565b5b6000610f3e86828701610ec9565b9350506020610f4f86828701610d7a565b9250506040610f6086828701610f02565b9150509250925092565b600060208284031215610f8057610f7f610c09565b5b6000610f8e84828501610d7a565b91505092915050565b600081519050919050565b600082825260208201905092915050565b60005b83811015610fd1578082015181840152602081019050610fb6565b83811115610fe0576000848401525b50505050565b6000610ff182610f97565b610ffb8185610fa2565b935061100b818560208601610fb3565b61101481610c1d565b840191505092915050565b600060408201905081810360008301526110398185610fe6565b90506110486020830184610e76565b9392505050565b61105881610e0b565b82525050565b6000602082019050611073600083018461104f565b92915050565b600081519050919050565b600082825260208201905092915050565b6000819050602082019050919050565b600082825260208201905092915050565b60006110c182610f97565b6110cb81856110a5565b93506110db818560208601610fb3565b6110e481610c1d565b840191505092915050565b6110f881610d59565b82525050565b6000604083016000830151848203600086015261111b82826110b6565b915050602083015161113060208601826110ef565b508091505092915050565b600061114783836110fe565b905092915050565b6000602082019050919050565b600061116782611079565b6111718185611084565b93508360208202850161118385611095565b8060005b858110156111bf57848403895281516111a0858261113b565b94506111ab8361114f565b925060208a01995050600181019050611187565b50829750879550505050505092915050565b600060208201905081810360008301526111eb818461115c565b905092915050565b7f5468652063616c6c6572206d7573742062652074686520627579657200000000600082015250565b6000611229601c83610fa2565b9150611234826111f3565b602082019050919050565b600060208201905081810360008301526112588161121c565b9050919050565b7f5468652066756e6374696f6e2063616e2062652063616c6c6564206f6e6c792060008201527f616674657220627579696e672100000000000000000000000000000000000000602082015250565b60006112bb602d83610fa2565b91506112c68261125f565b604082019050919050565b600060208201905081810360008301526112ea816112ae565b9050919050565b7f4e487b7100000000000000000000000000000000000000000000000000000000600052603260045260246000fd5b7f4e487b7100000000000000000000000000000000000000000000000000000000600052602260045260246000fd5b6000600282049050600182168061136757607f821691505b6020821081141561137b5761137a611320565b5b50919050565b600081905092915050565b60008190508160005260206000209050919050565b600081546113ae8161134f565b6113b88186611381565b945060018216600081146113d357600181146113e457611417565b60ff19831686528186019350611417565b6113ed8561138c565b60005b8381101561140f578154818901526001820191506020810190506113f0565b838801955050505b50505092915050565b600061142c82846113a1565b915081905092915050565b7f4e487b7100000000000000000000000000000000000000000000000000000000600052601160045260246000fd5b600061147182610d59565b915061147c83610d59565b9250827fffffffffffffffffffffffffffffffffffffffffffffffffffffffffffffffff038211156114b1576114b0611437565b5b828201905092915050565b60006114c782610d59565b91507fffffffffffffffffffffffffffffffffffffffffffffffffffffffffffffffff8214156114fa576114f9611437565b5b600182019050919050565b600060408201905061151a6000830185610bd5565b6115276020830184610bd5565b9392505050565b7f5468652066756e6374696f6e2063616e2062652063616c6c6564206f6e6c792060008201527f7768696c6520627579696e672100000000000000000000000000000000000000602082015250565b600061158a602d83610fa2565b91506115958261152e565b604082019050919050565b600060208201905081810360008301526115b98161157d565b9050919050565b7f4e6f7420656e6f7567682062616c616e63650000000000000000000000000000600082015250565b60006115f6601283610fa2565b9150611601826115c0565b602082019050919050565b60006020820190508181036000830152611625816115e9565b9050919050565b7f4e6f742066756c6c206574686572000000000000000000000000000000000000600082015250565b6000611662600e83610fa2565b915061166d8261162c565b602082019050919050565b6000602082019050818103600083015261169181611655565b9050919050565b7f4572726f72207768656e2073656e64696e672045746865720000000000000000600082015250565b60006116ce601883610fa2565b91506116d982611698565b602082019050919050565b600060208201905081810360008301526116fd816116c1565b9050919050565b600061170f82610d59565b915061171a83610d59565b92508282101561172d5761172c611437565b5b828203905092915050565b61174181610ea0565b82525050565b61175081610ede565b82525050565b600060608201905061176b6000830186611738565b6117786020830185610e76565b6117856040830184611747565b94935050505056fea2646970667358221220f4fe357068e7004ebb807abb330c9d211138d7df702f67ba31e84135dcc05e5264736f6c634300080a0033",
  "immutableReferences": {},
  "source": "// SPDX-License-Identifier: MIT\r\npragma solidity ^0.8.10;\r\n\r\nabstract contract Transaction {\r\n    function buyingStart(address payable _addressSeller, uint256 _value, uint8 _ether) virtual payable public;\r\n    function buyingEnd(string memory _title, uint256 _value) virtual public;\r\n}\r\n\r\ncontract BuyBook is Transaction {\r\n\r\n    struct Book {\r\n        string title;\r\n        uint256 paidFor;\r\n    }\r\n\r\n    enum StatusTransaction {\r\n        BuyingStart,\r\n        BuyingEnd\r\n    }\r\n\r\n    address public buyer;\r\n    StatusTransaction public statusTransaction;\r\n\r\n    mapping(address => uint256) public state;\r\n    Book[] public books;\r\n\r\n    modifier onlyBuyer() {\r\n        require(msg.sender == buyer, \"The caller must be the buyer\");\r\n        _;\r\n    }\r\n\r\n    modifier onlyWhenBuying() {\r\n        require(statusTransaction == StatusTransaction.BuyingStart, \"The function can be called only while buying!\");\r\n        _;\r\n    }\r\n\r\n    modifier onlyAfterBuying() {\r\n        require(statusTransaction == StatusTransaction.BuyingEnd, \"The function can be called only after buying!\");\r\n        _;\r\n    }\r\n\r\n    event BuyingStartEvent(address payable _addressSeller, uint256 _value, uint8 _ether);\r\n    event BuyingEndEvent(string _title, uint256 _value);\r\n    event ChangeStatusTransactionEvent(StatusTransaction prevStatus, StatusTransaction newStatus);\r\n\r\n    constructor(uint256 _state) {\r\n        buyer = msg.sender;\r\n        state[buyer] = _state;\r\n        statusTransaction = StatusTransaction.BuyingStart;\r\n    }\r\n\r\n    function buyingStart(address payable _addressSeller, uint256 _value, uint8 _ether) virtual override payable public onlyBuyer onlyWhenBuying {\r\n        require(state[buyer] >= _ether, \"Not enough balance\");\r\n        require(msg.value >= _value, \"Not full ether\");\r\n        //require(state[_addressSeller] + _value >= state[_addressSeller]);\r\n        bool transaction = payable(_addressSeller).send(_value);\r\n        require(transaction, \"Error when sending Ether\");\r\n        statusTransaction = StatusTransaction.BuyingEnd;\r\n        state[buyer] -= _ether;\r\n        state[_addressSeller] += _ether;\r\n        emit BuyingStartEvent(_addressSeller, _value, _ether);\r\n        emit ChangeStatusTransactionEvent(StatusTransaction.BuyingStart, statusTransaction);\r\n    }\r\n\r\n    function buyingEnd(string memory _title, uint256 _value) virtual override public onlyBuyer onlyAfterBuying {\r\n        statusTransaction = StatusTransaction.BuyingStart;\r\n        bool found = false;\r\n        for (uint256 i = 0; i < books.length; i++) {\r\n            if (keccak256(bytes(books[i].title)) == keccak256(bytes(_title))) {\r\n                books[i].paidFor += _value;\r\n                found = true;\r\n                break;\r\n            }\r\n        }\r\n        if (!found) {\r\n            books.push(\r\n                Book({\r\n            title: _title,\r\n            paidFor: _value\r\n            })\r\n            );\r\n        }\r\n        emit BuyingEndEvent(_title, _value);\r\n        emit ChangeStatusTransactionEvent(StatusTransaction.BuyingEnd, statusTransaction);\r\n    }\r\n\r\n    function getBooks() public view returns(Book[] memory) {\r\n        return books;\r\n    }\r\n\r\n    function getStatusTransaction() public view returns(StatusTransaction) {\r\n        return statusTransaction;\r\n    }\r\n}",
  "sourcePath": "D:\\3.letnik\\1.semester\\sp\\LP\\LP-04\\app_dapp\\contracts\\BuyBook.sol",
  "compiler": {
    "name": "solc",
    "version": "0.8.10+commit.fc410830.Emscripten.clang"
  },
  "schemaVersion": "3.4.4",
  "updatedAt": "2022-01-10T03:11:06.558Z",
  "devdoc": {
    "kind": "dev",
    "methods": {},
    "version": 1
  },
  "userdoc": {
    "kind": "user",
    "methods": {},
    "version": 1
  }
}